:020000040800F2
:10000000586300205D0200087D3D0008EB2F0008CA
:10001000A13A0008750C0008694B000800000000B8
:100020000000000000000000000000009D0100082A
:10003000DD0D000800000000F90100088142000801
:1000400077020008770200087702000877020008AC
:10005000770200087702000877020008770200089C
:10006000770200087702000877020008210D0008D7
:10007000770200087702000877020008770200087C
:10008000770200087702000877020008770200086C
:10009000770200087702000877020008770200085C
:1000A000770200087702000877020008770200084C
:1000B000770200087702000877020008770200083C
:1000C000770200087702000877020008770200082C
:1000D00077020008ED4A000877020008770200085E
:1000E0007702000877020008770200084143000801
:1000F00077020008770200087702000877020008FC
:1001000077020008770200087702000877020008EB
:1001100077020008294600087702000877020008E5
:1001200077020008770200082D0D0008770200080A
:1001300077020008770200087702000877020008BB
:1001400077020008770200087702000877020008AB
:10015000770200087702000877020008770200089B
:10016000770200087702000877020008770200088B
:1001700077020008770200087702000800000000FC
:100180007702000877020008DFF80CD000F0A8FC26
:1001900000480047315C0008586300202C4B196868
:1001A0000868B0E8F04F80F30988BFF36F8F4FF015
:1001B000000080F3118870470000000008480068C4
:1001C000006880F308884FF0000080F3148862B65E
:1001D00061B6BFF34F8FBFF36F8F00DF00BF00BF6B
:1001E00008ED00E0DFF80C00016841F470010160E7
:1001F000704700BF88ED00E0EFF30980BFF36F8F19
:10020000134B1A681EF0100F08BF20ED108A20E96A
:10021000F04F106009B44FF0500080F31188BFF325
:100220004F8FBFF36F8F06F043FF4FF0000080F356
:10023000118809BC19680868B0E8F04F1EF0100F6B
:1002400008BFB0EC108A80F30988BFF36F8F704746
:10025000CC000020EFF3058070470000064880477F
:1002600006480047FEE7FEE7FEE7FEE7FEE7FEE79B
:10027000FEE7FEE7FEE7FEE73143000889010008DC
:100280002DE9F05F0546002092469B4688460646CB
:10029000814640241BE0284641464746224600F05E
:1002A00090FA53465A46C01A914110D31146184647
:1002B000224600F077FA2D1A67EB01084F462246D6
:1002C0000120002100F06EFA17EB00094E41201EBC
:1002D000A4F10104DFDC484631462A464346BDE826
:1002E000F09F40EA01039B0703D009E008C9121FF1
:1002F00008C0042AFAD203E011F8013B00F8013BE0
:10030000521EF9D27047D2B201E000F8012B491E0B
:10031000FBD270470022F6E710B513460A460446A2
:100320001946FFF7F0FF204610BD2DE9FE4F80462D
:1003300081EA0300C00F0C46009021F0004123F039
:100340000045B8EB0200A94105D24046214690463F
:100350001C460B46024623F00040104347D0270DB1
:10036000C7F30A00C3F30A510290401A01904028D3
:100370006BDAC3F3130040F4801B0098924620B15F
:100380000023D2EB030A63EB0B0B01985946C0F133
:100390004002504600F006FA06460D4650465946C1
:1003A000019A00F01EFA10EB08006141002487EA70
:1003B000115284EAE7731A4340D0009A62B3019A5B
:1003C000012A4FEA075215DC001B61EB02014FF0D6
:1003D000004202EA0752CDE90042001C41F58011BB
:1003E00032462B4600F055FA03B0BDE8F08F404688
:1003F0002146F9E7001B61EB0201001C41F5801367
:1004000000185B412018A2F5001747EB030140EAF2
:10041000D570B6196D4111E06D084FEA360645EA10
:10042000C0754FEA0752001B61EB0201001C41F549
:10043000801149084FEA30000019514132462B46DD
:1004400003B0BDE8F04F00F015BA0098012240005B
:100450000023D0EB020263EBE073009821464FEAE1
:10046000E074B8EB000061EB0401E9E783F00043BE
:100470005BE781F0004158E72DE9FE4F81EA030474
:1004800004F0004421F0004100944FF0000B23F0F1
:10049000004350EA01045ED052EA03045BD0C3F388
:1004A0000A54C1F30A552C44A4F2F3340194A0FB7E
:1004B0000254C1F3130141F48011C3F3130343F455
:1004C000801301FB024400FB034E840A970A44EAAE
:1004D000815447EA8357A4FB076802958D0A05FB00
:1004E00007854FEA932C04FB0C542705029D4FEA25
:1004F000065847EA1637B5EB08056EEB070C870E72
:10050000920E47EA811742EA8312A7FB0201B6EB7B
:100510000B0164EB00042B0D43EA0C335E1844EB33
:100520001C50DA465146E7FB0201C5F313044FEABB
:100530000B3343EA14534FEA0432019C43EA0603A7
:10054000A4F10C040294009CCDE900B400F0A1F9E0
:1005500003B0BDE8F08F00200146F9E72DE9F04D2A
:1005600081EA030404F0004B21F0004514464FF0EB
:10057000000A23F0004150EA050220D054EA0102AB
:100580001DD0C5F30A570246C5F31303C1F3130088
:10059000C1F30A5640F4801543F48013A7EB060814
:1005A000101BD64608F2FD3873EB050002D308F1A4
:1005B000010801E092185B41B8F1000F03DA002056
:1005C0000146BDE8F08D00204FF4801106468446B8
:1005D0000EE0171B73EB050705D3121B63EB050336
:1005E00006434CEA010C49084FEA300092185B417F
:1005F00050EA0107EDD152EA030012D082EA04006A
:1006000083EA0501084305D0101BAB4106D2012245
:10061000002306E000224FF0004302E06FF00102E9
:1006200053101AEB06004CEB085110EB0A0041EB9B
:100630000B01BDE8F04D00F01DB90EB5C10F80EA09
:10064000E0700844CA07002140F233438DE80E00F1
:100650000A460B4600F01DF903B000BD0EB540F28E
:10066000334102910021CDE900110A460B4600F00A
:1006700010F903B000BD70B5C1F30A5201F0004596
:100680000024C1F3130140F2FF3341F480119A4278
:1006900001DA002070BD40F233439A42A2F23342A5
:1006A00003DC524200F08DF800E090402C43F1D082
:1006B000404270BDC1F30A5210B5C1F3130140F2BC
:1006C000FF3341F480119A4201DA002010BD40F25C
:1006D00033439A42A2F2334203DC524200F071F8F3
:1006E00010BD904010BD00F0004230F000400AD034
:1006F000C10D01F56071C0F3160042EA0151C20854
:1007000040071143704700200146704730B5041E72
:1007100071F1000404DB4FF00044404264EB01013E
:10072000141E73F1000405DB1C464FF000435242D7
:1007300063EB04038B4208BF824230BD30B5041E18
:1007400071F1000404DB4FF00044404264EB01010E
:10075000141E73F1000405DB1C464FF000435242A7
:1007600063EB0403994208BF904230BD01F000439F
:1007700030B421F0004150EA010206D00A0DA2F582
:100780006072C1F31301002A02DC30BC0020704704
:10079000440F44EAC104C100E01830BC00EBC25071
:1007A00000F031B8202A04DB203A00FA02F10020E0
:1007B00070479140C2F1200320FA03F3194390409F
:1007C0007047202A04DB203A21FA02F0002170470A
:1007D00021FA02F3D040C2F12002914008431946A9
:1007E0007047202A06DBCB17203A41FA02F043EA91
:1007F000E07306E041FA02F3D040C2F120029140DA
:100800000843194670470029A8BF7047401C49009B
:1008100008BF20F00100704710B4B0FA80FC00FA65
:100820000CF050EA010404BF10BC704749B1CCF190
:10083000200421FA04F411FA0CF118BF012121431C
:100840000843A3EB0C01CB1D4FEA00614FEA1020D7
:1008500042BF002010BC704700EBC3501044002979
:10086000A4BF10BC7047401C490008BF20F0010025
:1008700010BC704710B5141E73F1000408DA401C58
:1008800041F1000192185B411A4301D120F00100AF
:1008900010BD2DE9F04D92469B4611B1B1FA81F29F
:1008A00002E0B0FA80F220329046FFF77BFF044668
:1008B0000F4640EA0A0041EA0B0153465A460843F4
:1008C00013D0114653EA010019D0C8F14002504636
:1008D000FFF777FF05460E46504659464246FFF75A
:1008E00061FF084305D0012004E020463946BDE8F9
:1008F000F08D0020054346EAE0762C4337430A9802
:100900006305E40AA0EB08000022FD0A44EA47540C
:100910000A3002D500200146E9E7010510196941B6
:10092000DDE9084500196941BDE8F04DA2E72DE970
:10093000F04D00231A461B1A8A4103DB00200146B2
:10094000BDE8F08DC1F30A52C1F3130141F48015E3
:100950004FF0000BD10702D100186D41521E002745
:10096000044640F2FF11384601EB620A3E468046DB
:10097000024600204FF48011FFF723FFC219714196
:10098000BB1846EB0100B4EB030C75EB000C04D371
:10099000E41A65EB000517460E46241908F101001C
:1009A0006D4180463428E3DDF91946EB0600091B4A
:1009B000A84103D24FF0FF32134601E00022134654
:1009C0001BEB070046EB0A51BDE8F04DFFF752BFA5
:1009D0002DE9F041054621F000400C46284309D09E
:1009E000C4F30A5040F23341884205DD28462146CF
:1009F000BDE8F0812846FBE740F2FE31884210DC7A
:100A00000CDB4FEA043040EA155050EA053105D0BE
:100A1000104804F0004101430020E9E700200146AE
:100A2000E6E7A0F233404642C6F14002284621469E
:100A3000FFF7B8FE07468846284621463246FFF7AC
:100A4000C0FE43463A46FFF715FF3246BDE8F04187
:100A5000FFF7A8BE0000F03F2DE9FE4FC3F30A5791
:100A600001F000450024C1F30A56C3F31303C1F398
:100A7000130143F4801312EB020AA64641F48011DD
:100A8000009543EB030CA7F1010B16E0B0EB0A0055
:100A900061EB0C01071E71F1000707DA4FF0000847
:100AA000D0EB080085F0004568EB0101171A73EBE5
:100AB0000107EBD3761E001849415E45F6DA50EA8D
:100AC000010209D0CDE900E5002213460296FFF7A6
:100AD000E0FE03B0BDE8F08F20460099F9E7000082
:100AE000064C074D06E0E06840F0010394E807007B
:100AF00098471034AC42F6D3FFF74AFB94850008C0
:100B0000B485000870B58C1810F8015B15F0070368
:100B100001D110F8013B2A1106D110F8012B03E096
:100B200010F8016B01F8016B5B1EF9D12B0705D49E
:100B30000023521E0DD401F8013BFAE710F8013BE7
:100B4000CB1A921C03E013F8015B01F8015B521E03
:100B5000F9D5A142D8D3002070BD0000DFED220AF4
:100B60002349244820EE801A9FED200AD1ED020A85
:100B7000214B00EE201A81ED021A80ED021A90ED51
:100B8000080A70EE010AB0EEC10A10EE102AC0ED9C
:100B9000080A9A4203DA9FED190A81ED020A90EDE4
:100BA000040AD0ED051A90ED062A20EE010A01EEA6
:100BB000A00AD0ED031A71EE611A02EE210AD0EDFF
:100BC000091AF4EEE10AF1EE10FA06DCF1EE611A10
:100BD000F4EEE10AF1EE10FA01D2F0EE610AC0ED96
:100BE000080A80ED031A70473333733FD0CC4C3D75
:100BF00094000020AC0900200AD7233C000000002C
:100C00001748B0EE401A174A80ED021A90ED080A14
:100C100070EE010AC0ED080A90ED040AD0ED051A45
:100C200090ED062A20EE010A10EE901A01EEA00ABD
:100C3000D0ED031A914271EE611A02EE210A02DD33
:100C4000DFED090A06E010EE901A084A914201D938
:100C5000DFED070AC0ED080A80ED031A70470000B7
:100C6000D80900200000FA440000FA440000FAC449
:100C70000000FAC4FEE7000030B51848C0680178EB
:100C8000072913D14188808849BA45BA4FF4A0702A
:100C9000814201D1012200E00022F02D07D0002383
:100CA0000F4C1A4305D02060F020606030BD012356
:100CB000F6E70B48083005F013F82060084829468D
:100CC000303005F00DF86060054808380168491CAF
:100CD00001601429EADB0021016030BD8C05002091
:100CE0003C0000201CB50BA10A23D1E90001CDE98D
:100CF000000105226946094802F026F902F0F2FFD8
:100D0000FFF7BAFF04F0C8FD04F044FE052004F02C
:100D1000FBFFF3E7A55A0400FB000000DC03002002
:100D2000014800F00BBA000024040020014800F044
:100D300005BA00008404002001681823CAB2103AE2
:100D4000B2FBF3F2054B6FF30901032A9B5CC36509
:100D500000D9091D81650846704700000E8400080F
:100D600010B5014600208B698A6A4FF0C07453B1F8
:100D7000B3F5005F15D072B1012A0CD0022A0AD057
:100D8000032A09D104E01AB1012A06D0022A03D1AC
:100D9000C96AC90100D5012010BDC96AA142FAD0B3
:100DA00010BD002AF7D0012AF2D0022AF3D0032A7C
:100DB000F3D010BD30B50468256825F48025256082
:100DC000046863608368402B036803D099600068FF
:100DD000C26030BD9A600068C16030BD704772B6B5
:100DE000FEE7000070B53E489FED3C0A2DED028BFA
:100DF00080ED040A9FED3B0A9FED3D8A80ED050AD8
:100E0000B1EE000A80ED060A9FED370A80ED090A6F
:100E10005830B0EE080A80ED040A9FED340A80EDE8
:100E2000050A9FED340A80ED068A80ED090A9FEDE0
:100E3000320A2C3880ED040A9FED300A80ED050A55
:100E40009FED2F0A80ED060A9FED2E0A583080EDA7
:100E5000080A9FED2D0A80ED090A9FED2C0A283023
:100E600080ED080A9FED2A0A80ED090A4FF47A7096
:100E700000F0D6FADFED278AB0EE080AF0EE680A35
:100E800005F012FC4FF4FA75284600F0C9FAF0EEAE
:100E9000680AB0EE080A05F071FD04F0B7FC1E4CBC
:100EA000284684ED040A00F0BBFA04F0C1FC84ED8E
:100EB000050AF0EE680AB0EE480A05F0F5FB284690
:100EC00000F0AEFAF0EE680AB0EE480A05F056FD02
:100ED0000120E060BDEC028B70BD00003333333F76
:100EE000AC0900206F12833C00007A449A99193EA5
:100EF000000000000050C3479999993E0BD7A33BCF
:100F00009999193FCDCC4441CDCC34416666C2415C
:100F1000CDCCB441E4CB964094000020334C9FEDFF
:100F2000320A354E374D2DED048B84ED000AB7EEB5
:100F3000000A84ED010A9FED2E0A9FED309A84EDA0
:100F4000020A9FED2C0ADFED2E8A84ED030A306839
:100F5000C8B32D48D4ED000A90ED0A0A30EE808A1D
:100F600094ED030AB4EEC80AF1EE10FA06DC94ED33
:100F7000020AB4EEC80AF1EE10FA01D2B0EE408ACD
:100F8000B0EE480A03F01CF920480068012826D179
:100F9000286810B1012805D00AE094ED000A30EE6F
:100FA000090A03E094ED000A30EE490A84ED000AD4
:100FB00094ED020A30EE680AB4EEC80AF1EE10FAB7
:100FC00002D801200AE00AE094ED030A30EE280A74
:100FD000B4EEC80AF1EE10FA01DB0020286003200D
:100FE00004F092FEB3E7000065764340580100200C
:100FF000E4CB9640C3B8B23FA0000020EE96643B1D
:10100000920A063F000000202C050020200000204E
:10101000174C9FED160A194D84ED000A9FED150A35
:10102000174E84ED030A9FED140A84ED020A286826
:10103000B8B194ED000AD6ED0A0A30EE200AD4EDDC
:10104000030AF4EEC00AF1EE10FA06DCD4ED020A4F
:10105000F4EEC00AF1EE10FA01D2B0EE600A03F02D
:10106000DDF8032004F050FEE1E7000064B5B23F74
:1010700068010020920A863FF366DF3FA00000204F
:101080005C0500202DE9F0410446876D00F0DCFA94
:10109000064694F835000025022806D080206065B9
:1010A00084F834500120BDE8F0812068016821F007
:1010B000160101602068416921F080014161206CC6
:1010C00008B9A06C20B12068016821F00801016016
:1010D0002068016821F0010101600CE000F0B4FA21
:1010E000801B052807D920206065032084F835007F
:1010F00084F83450D7E720680068C007EED194F830
:101100005C103F208840B860012084F8350084F8E6
:1011100034500020C7E790F83510022903D0802111
:10112000416501207047052180F83510006801688D
:1011300021F0010101600020704700002DE9F84313
:1011400004464FF00009CDF8009063484FF4165163
:10115000A56D0068B0FBF1F72E6894F85C100820CC
:1011600000FA01F131420FD021680A6852070BD50D
:101170000A6822F004020A6094F85C108840A860B3
:10118000606D40F00100606594F85C104FF001085C
:1011900008FA01F0304208D021684969090604D5EF
:1011A000A860606D40F00200606594F85C10042057
:1011B0008840304208D021680968890704D5A860B2
:1011C000606D40F00400606594F85C101020884069
:1011D000304218D021680968090714D5A860206832
:1011E0000168490304D50068000308D5A16C07E035
:1011F0000168C90503D4016821F008010160216C70
:1012000009B12046884794F85C102020884030427D
:1012100031D021680968C9062DD5A86094F8350039
:1012200005282068016806D0490347D500680003F7
:101230001DD4616C1CE021F0160101602068416939
:1012400021F080014161206C08B9A06C20B12068B8
:10125000016821F00801016094F85C103F2088408B
:10126000A86084F8358084F83490216D1FE0E16B2C
:1012700009B120468847606D00282BD0606DC007FB
:1012800014D0052084F835002068016821F00101A0
:1012900001600098401C0090B84203D820680068A4
:1012A000C007F6D184F8358084F83490E16C0029C9
:1012B00010D001B02046BDE8F04308470168C905D9
:1012C000D5D4016821F01001016084F8358084F8DC
:1012D0003490CCE7BDE8F883C80000202DE9F04148
:1012E000044600F0B1F906465CB1022084F83500EE
:1012F000002584F834502068016821F00101016064
:101300000DE00120BDE8F08100F09EF9801B05286A
:1013100005D920206065032084F83500F2E72068B5
:101320000068C007F0D12268116820480140D4E964
:1013300001031843D4E90336334318436369184360
:10134000A3691843E3691843236A18430843616A91
:10135000042903D1D4E90B13194308431060206812
:101360004069666A20F0070130460E4301270428D1
:101370000CD1A06A0643E06A40B12046FFF7F0FCBA
:1013800020B14020606584F83570BAE72068466176
:101390002046FFF7D1FC94F85C203F21914081600A
:1013A000656584F835700020ACE700003F8010F0E0
:1013B0002DE9F0410446866D90F83400002501289F
:1013C0000DD0012084F8340094F835700020012FEE
:1013D00007D084F8340002252846BDE8F0810220B9
:1013E000FBE7022784F8357060652046FFF7E2FCD2
:1013F00094F85C103F208840B0602068016841F09C
:1014000016010160206C20B12068016841F00801DC
:1014100001602068016841F001010160DCE7000023
:1014200070B5044600F010F90546601C02D004486F
:101430000078044400F008F9401BA042FAD370BDC4
:10144000BC0000202DE9F84FDFF8BCA100220125E7
:1014500003264FF00F090AF1040BAAF1040E00BF96
:101460000B6805FA02F42340A34270D10F7907F00C
:101470000307012F01D0022F16D187684FEA4208D7
:1014800006FA08FC27EA0C07D1F80CC00CFA08FC95
:101490004CEA070CC0F808C04768A7430C79C4F3AE
:1014A000001494403C4344600C79E443A4070AD000
:1014B000C4684FEA420C06FA0CF7BC438F6807FA7F
:1014C0000CF72743C7600C7904F00304022C12D1F7
:1014D000D40800EB840CDCF820405707FF0E09FA13
:1014E00007F824EA0804D1F8108008FA07F848EA57
:1014F0000408CCF8208004684FEA420C06FA0CF786
:10150000BC430F7907F0030707FA0CF7274307607E
:101510004C6814F4403F70D03C4C276847F4804737
:101520002760246822F0030704F480440094384CB8
:1015300007EB040CDCF8084897074FEA177809FA1C
:1015400008F7BC43334FB84202D1002724E054E0EF
:10155000314FB84201D101271EE0304FB84201D1CE
:10156000022719E02E4FB84201D1032714E02D4F76
:10157000B84201D104270FE02B4FB84201D1052713
:101580000AE02A4FB84201D1062705E0284FB842A9
:1015900001D1072700E0082707FA08F72743CCF80E
:1015A0000878DAF800405746D1F804C09C435FEA57
:1015B000CC2C00D51C433C60DBF800405F46D1F8E2
:1015C00004C09C435FEA8C2C00D51C433C60DEF8D1
:1015D00000407746D1F804C09C435FEA8C3C00D5BC
:1015E0001C433C60084F083F3C68D1F804C09C4352
:1015F0005FEACC3C00D51C433C60521C102AFFF42F
:101600002FAFBDE8F88F0000083C0140443802408D
:101610000030014000000240000402400008024087
:10162000000C02400010024000140240001802406A
:10163000001C02400069084000D0012070470AB138
:10164000816170470904FBE701488068704700002A
:10165000BC00002070B5040025D094F83D000025A2
:1016600020B984F83C50204600F050FA242084F839
:101670003D002068016821F00101016020680168D7
:1016800041F4004101602068016821F400410160DB
:1016900000F04CFC4D4A6168914201D84C4900E091
:1016A0004C49884201D2012070BD4B492368B0FBF0
:1016B000F1F15E6826F03F060E435E606368934278
:1016C00006D94FF4967359434FF47A73B1FBF3F193
:1016D0002368491C1E6A26F03F063143196261687F
:1016E000914210D84900401EB0FBF1F2521CC2F3E7
:1016F0000B02042A01D2042022E0B0FBF1F0401CCE
:10170000C0F30B001CE0A268F2B301EBC10303EBD2
:101710000116431EB3FBF6F35B1C43F480431B0529
:1017200049D092B301EBC10202EB0111401EB0FBA4
:10173000F1F0401CC0F30B0040F4804040F4004046
:101740002168CA694CF6FF739A431043C861D4E913
:10175000071001432068026822F0C00211430160B3
:10176000D4E9030101432068826848F2FF339A43B9
:1017700011438160D4E9050108432168CA6822F059
:10178000FF021043C86001E00EE016E02068016827
:1017900041F0010101602564202084F83D002563AB
:1017A00084F83E50002070BD01EB4106431EB3FBA0
:1017B000F6F35B1CB3E70120C2E701EB4101401ED9
:1017C000B0FBF1F0401CC0F30B00B7E7A0860100AE
:1017D00080841E0000093D0040420F002DE9F84FB3
:1017E0001F4690468A460446DDF82890FFF72CFFF6
:1017F000054694F83D0020287FD119230122404955
:101800002046009501F002FD002876D194F83C00B6
:10181000012872D0012084F83C0020680168C907C3
:1018200003D1016841F0010101602068016821F4E1
:1018300000610160212084F83D00102084F83E0002
:1018400000262664C4F824806785608D20852D4895
:10185000E0622B464A465146204601F0DFFB90B934
:10186000206841698069009036E02A464946204652
:1018700001F0AAFD50B1206C042804D12068016851
:1018800041F4007101600120BDE8F88F606A2168B1
:1018900000780861606A401C6062618D491E618544
:1018A000218D491E89B2218522685369DB435B077C
:1018B0000BD451B100781061606A401C6062608D89
:1018C000401E6085208D401E20852A4649462046C0
:1018D00001F070FC0028CED1208D0028C5D154F82D
:1018E0003D0B016841F400710160202004F81E09DD
:1018F000E67766770020C7E7FFE70220C4E700002D
:10190000020010000000FFFF2DE9FF4F83B09A4650
:10191000DDE9118793460446DDF84090FFF794FE19
:10192000054694F83D00202870D1192301227449FE
:101930002046009501F06AFC0028F5D194F83C009F
:10194000012863D0012084F83C0020680168C907A1
:1019500003D1016841F0010101602068016821F4B0
:1019600000610160222084F83D00402084F83E00A0
:1019700000262664C4F82490A4F82A80608D20856F
:101980006048E062CDE9007553465A462046049906
:1019900001F092FB002879D1208DD0B1012821D00F
:1019A0000228206824D0416980690090208D032896
:1019B00066D801282BD0544902283B464FF000023C
:1019C000009557D08846204601F020FC00285DD1C4
:1019D0003AE02068416981690091016841F4007131
:1019E00001607DE02068016821F480610160F0E71A
:1019F000016821F4806101602068016841F40061A0
:101A00000160206841698069009069E075E02A46BC
:101A10003946204601F0A0FC88BB54E020680168EC
:101A200041F40071016020680069616A0870606AB1
:101A3000401C6062218D491E2185618D491E618592
:101A400021680969017042E02068016821F4806121
:101A5000016020680069616A0870606A401C606209
:101A6000208D401E2085608D401E60853B460022F3
:101A700041460095204601F0C9FB00B9CEE705E0DC
:101A80002A463946204601F067FC18B1012007B00C
:101A9000BDE8F08F20680069616A0870606A401CC8
:101AA0006062208D401E81B22185608D401E608560
:101AB00020684269D243520712D4032903D1016836
:101AC00021F48061016020680069616A0870606AC1
:101AD000401C6062208D401E2085608D401E608508
:101AE000208D00287FF462AF202084F83D0084F828
:101AF0003E6084F83C600020C9E70220C7E7000090
:101B0000020010000000FFFF040001002DE9F04179
:101B100086B0044614216846FEF7FCFB23683B4C64
:101B2000DFF8E4C00022394912250326042738488B
:101B30001034634518D10B6843F002030B60096849
:101B400002AB01F002010591C021CDE9001583E847
:101B5000C4006946FFF776FC206840F4001020605E
:101B6000206800F400101CE0DFF8A8C063451CD119
:101B70000B6843F002030B60096802AB01F002013D
:101B800005914FF44061CDE9001583E8C400694632
:101B9000FFF758FC206840F480002060206800F4C3
:101BA0008000059006B0BDE8F0811B488342F9D162
:101BB0000868904640F004000860086800F00400DF
:101BC0000590086840F0010008600868694600F068
:101BD0000100059058158DE821011048CDE90367F3
:101BE000FFF730FC4FF480708DE8210169460C4806
:101BF000CDE90367FFF726FC206840F40000206071
:101C0000206800F40000CCE7005400403038024067
:101C10000004024000580040005C00400008024000
:101C200000000240024881680278114481607047D8
:101C3000BC0000200B4810B5016841F40071016040
:101C4000016841F480610160016841F480710160C4
:101C5000032000F09FF80F2000F006F800F050F885
:101C6000002010BD003C024030B505461F4887B03B
:101C70000024016841F040010160006806A900F0FD
:101C80004000009001A800F031F90498A8B100F0DC
:101C90004DF940001649174AB0FBF1F11648491EAC
:101CA000026040F2E732C0E90324C0E90114846114
:101CB00000F08EFB040003D015E000F037F9E9E7EF
:101CC0000D4800F01FFC04000DD12B2000F034F86B
:101CD000102D07D2002229462B2000F03BF80748A0
:101CE000056000E0012407B0204630BD40380240C6
:101CF00040420F0000180040E4040020C000002013
:101D00000C4882B0016841F480410160006800F431
:101D1000804000900748001F016841F08051016039
:101D20000068002200F0805000900F21901E02B049
:101D300000F010B844380240002809DB00F01F0210
:101D4000012191404009800000F1E020C0F800111D
:101D500070470000F0B40E4B1B680C46C3F302231F
:101D6000C3F10705042D00D90425191D072901D247
:101D7000002300E0DB1E012606FA05F1491E214082
:101D800099409E40761E16403143F0BC02F005BFDC
:101D90000CED00E0064900F0070208684FF6FF036B
:101DA000184040EA0220034A1043086070470000D0
:101DB0000CED00E00000FA052DE9F0470E460500A5
:101DC00065D0DFF81481D8F80000F7B200F0070002
:101DD000B04207D288F80070D8F8000000F0070081
:101DE000B04254D128683D4C810712D5400703D535
:101DF000206840F4E05020602878000703D5206870
:101E000040F4604020602068A96820F0F00008439A
:101E100020602878C0072DD030496868083901282B
:101E200012D0022813D0032811D00968890700298D
:101E30002DDA216821F0030101432160FFF704FC42
:101E4000814641F2883A0EE009688903EFE70968A4
:101E50008901ECE7FFF7F8FBA0EB0901514502D936
:101E60000320BDE8F0872068696800F00C00B0EB43
:101E7000810FEFD1D8F80010404601F00701B142C0
:101E800007D90770006800F00700B04201D00120B8
:101E9000E7E72878400705D52068E96820F4E05096
:101EA000084320602878000706D52068296920F4B7
:101EB000604040EAC100206000F058F82168084AFC
:101EC000C1F30311515CC840064908600648006828
:101ED000FFF7CAFE0020C4E7003C02400838024079
:101EE00016840008C8000020C00000200F220260F5
:101EF0000C4A136803F003034360136803F0F00314
:101F00008360136803F4E053C36012684FF4E05336
:101F100003EAD20202610448006800F0070008608A
:101F20007047000008380240003C02400448054960
:101F300000680968044AC1F38221515CC8407047B7
:101F4000C8000020083802402684000804480549DB
:101F500000680968044AC1F34231515CC8407047C7
:101F6000C80000200838024026840008154810B533
:101F7000006810F00C02144813D01449042A0FD042
:101F8000082A0ED10F4C241F2268236802F03F025A
:101F90005B0207D52068C0F38810A0FB010106E0B2
:101FA000084610BD2168C1F38811A1FB0001002380
:101FB000FEF766F92168C1F30141491C4900B0FBF5
:101FC000F1F010BD083802400024F40040787D0193
:101FD0002DE9F84F04006ED02078DFF84C93C0074D
:101FE000A9F104054AD009F104000168C1F3810197
:101FF000012908D00068C0F3810002280AD1D9F86D
:102000000000400206D52868800337D560680028A4
:10201000E1D033E06068B0F5803F10D0B0F5A02F7C
:10202000286810D020F480302860286820F48020B0
:1020300028606068A8B1FFF707FB06460DE0286836
:1020400040F48030F4E740F480202860F7E700BFD8
:10205000FFF7FAFA801B642873D828688003F7D545
:102060000CE0FFF7F1FA064605E000BFFFF7ECFAD7
:10207000801B6428F0D828688003F7D42078DFF824
:10208000AC8280074FF0000A3ED5A748001D0168CA
:1020900011F00C0F08D00068C0F3810002280BD1AA
:1020A000D9F80000400207D42868800716D5E068F8
:1020B000012800D112E033E1E068B8B10120C8F88E
:1020C0000000FFF7C1FA064605E000BFFFF7BCFAC3
:1020D000801B0228C0D828688007F7D528682169A6
:1020E00020F0F80040EAC10028600DE0C8F800A028
:1020F000FFF7AAFA064604E0FFF7A6FA801B0228BB
:102100001FD828688007F7D42078000722D5864F8B
:1021100087486169703771B101210160FFF794FA56
:10212000064604E0FFF790FA801B022809D83868B9
:102130008007F7D50EE0C0F800A0FFF785FA064645
:1021400005E082E0FFF780FA801B02287DD838681E
:102150008007F7D42078400768D5DFF8CCB1002796
:102160000BF13C0BDBF80000C0000BD4DBF80010D7
:1021700041F08051CBF80010DBF80000012700F09F
:10218000805000906B4E3068C00510D4306840F429
:1021900080703060FFF758FA009005E0FFF754FABE
:1021A0000099401A022850D83068C005F6D55E4E16
:1021B000A0686C3601280FD00528306810D020F0B8
:1021C00001003060306820F004003060A068B8B1D1
:1021D000FFF73AFA00900FE0306840F00100F4E7B2
:1021E00040F004003060F7E7FFF72EFA0099411A3B
:1021F00041F28830814266D830688007F4D50EE01D
:10220000FFF722FA009007E0FFF71EFA0099411A43
:1022100041F28830814256D830688007F4D42FB11B
:10222000DBF8001021F08051CBF80010A069C8B392
:102230003D49091D0968C1F3810102294AD00228DC
:10224000504607D0C8F8600000E03CE0FFF7FCF91A
:1022500004463BE04746C8F86000FFF7F5F906463C
:1022600005E000BFFFF7F0F9801B02282BD8286893
:102270008001F7D4D4E907010843A16A2E4A49082E
:1022800002EB0141626A41EA8211084394F82C1082
:1022900040EA0161C9F8001001203866FFF7D4F95F
:1022A000044606E03EE000BFFFF7CEF9001B02281F
:1022B00009D828688001F7D534E000BFFFF7C4F9DA
:1022C000001B022802D90320BDE8F88F286880018E
:1022D000F4D427E00128F7D0D9F80000E26900F42F
:1022E000800191421CD1226A00F03F01914217D136
:1022F00047F6C071626A0140B1EB821F10D1A26A39
:102300004FF0FF3300F4403103EB5202B1EB024FC8
:1023100006D194F82C1000F07060B0EB016F01D082
:102320000120D1E70020CFE70438024000004742F7
:10233000800E4742007000400000FFFF704770476A
:1023400070B590F83C20012A32D0012480F83C403E
:10235000022280F83D2003685A689D6822F07006CA
:102360000A6832435A60134B02689A4214D0B2F1A1
:10237000804F11D0104B9A420ED0104B9A420BD086
:102380000F4B9A4208D00F4B9A4205D00E4B9A42FF
:1023900002D00E4B9A4204D1496825F080031943BC
:1023A000916080F83D40002180F83C10084670BDE7
:1023B000022070BD00000140000400400008004001
:1023C000000C0040000401400040014000180040A3
:1023D00010B5040003D094F83D0010B107E00120CF
:1023E00010BD002084F83C00204600F01FF80220B9
:1023F00084F83D00211D206801F0A8FF012084F829
:10240000460084F83E0084F83F0084F8400084F8D9
:10241000410084F8420084F8430084F8440084F8C2
:10242000450084F83D00002010BD000008B501689B
:102430001248814208D11248016841F0010101604F
:10244000006800F001000BE00D480E4A001F9142A9
:1024500008D1016841F002010160006800F002004B
:10246000009008BD084A9142FBD1016841F0040187
:102470000160006800F00400F2E700000000014085
:1024800044380240000400400008004090F83D102D
:10249000012901D001207047022180F83D10006819
:1024A0001149884214D0B0F1804F11D00F498842B1
:1024B0000ED00F4988420BD00E49884208D00E49F1
:1024C000884205D00D49884202D00D49884204D186
:1024D000816801F00701062903D0016841F001017C
:1024E000016000207047000000000140000400402F
:1024F00000080040000C0040000401400040014082
:102500000018004090F83D10012901D001207047CB
:10251000022180F83D100168CA6842F00102CA60D9
:1025200000681149884214D0B0F1804F11D00F4992
:1025300088420ED00E4988420BD00E49884208D0FE
:102540000D49884205D00D49884202D00C49884285
:1025500004D1816801F00701062903D0016841F028
:1025600001010160002070470000014000040040AC
:1025700000080040000C0040000401400040014001
:102580000018004070B5044690F83C000025012872
:1025900017D0012684F83C60022084F83D002068B2
:1025A000826822F0770222F47F4282600868502815
:1025B00038D00DDC20284FD005DC90B3102811D185
:1025C0004AE0022070BD302846D040280AD13BE0C6
:1025D00060282FD070280DD0B0F5805F03D0B0F503
:1025E000005F12D0012584F83D60002084F83C0093
:1025F000284670BDCB68D1E90121206801F01BFF9E
:102600002068816841F0770109E0CB68D1E90121B8
:10261000206801F010FF2068816841F480418160EA
:10262000E1E719E0CA684968206801F0D9FF502144
:10263000206806E0CA684968206801F0E2FF60216E
:10264000206801F002FFCEE7CA684968206801F0FF
:10265000C7FF40212068F4E7226801461046F0E7F2
:1026600070472DE9F04104460068C66805694FF0DF
:102670000007A90713D5B10711D5F91E0161012083
:102680002077206880698007204602D0FFF7E8FFA6
:1026900004E000F0C1F8204600F053F927776807FE
:1026A00016D5700714D521686FF004000861022068
:1026B00020772068806910F4407F204602D0FFF721
:1026C000CFFF04E000F0A8F8204600F03AF92777A1
:1026D000280715D5300713D521686FF00800086169
:1026E000042020772068C0698007204602D0FFF7C9
:1026F000B7FF04E000F090F8204600F022F92777B9
:10270000E80616D5F00614D521686FF010000861B0
:10271000082020772068C06910F4407F204602D04E
:10272000FFF79EFF04E000F077F8204600F009F97B
:102730002777E80708D0F00706D021686FF001007E
:102740000861204600F062F9280608D5300606D553
:1027500021686FF0800008612046FFF7EFFD6806F2
:1027600008D5700606D521686FF040000861204644
:1027700000F056F9A8060AD5B00608D521686FF012
:10278000200008612046BDE8F041FFF7D8BDBDE854
:10279000F081000010B586B0044614216846FDF7AC
:1027A000B9FD2368174C002117480222A34211D11A
:1027B000036843F004030360006800F00400059020
:1027C0004FF4E0700090CDE90121CDE90312694694
:1027D0000E4813E00E4CA34212D1036843F00803E5
:1027E0000360006800F0080005904FF4E04000909E
:1027F000CDE90121CDE9031269460648FEF722FE24
:1028000006B010BD0004004030380240000802400D
:1028100000080040000C0240704770B5044690F874
:102820003C0000260D4601280FD0012084F83C0012
:102830006AB1042A1DD0082A2FD00C2A3FD00126C5
:10284000002084F83C00304670BD022070BD206836
:1028500001F004FE2068816941F00801816120686F
:10286000816921F004018161206881692A6911432D
:1028700011E0206801F022FE2068816941F40061C6
:1028800081612068816921F48061816120688169AA
:102890002A6941EA02218161D2E7206801F044FE01
:1028A0002068C16941F00801C1612068C16921F057
:1028B0000401C1612068C1692A69114311E02068DF
:1028C00001F066FE2068C16941F40061C1612068C1
:1028D000C16921F48061C1612068C1692A6941EA46
:1028E0000221C161ACE710B5040003D094F83D00AB
:1028F00010B107E0012010BD002084F83C00204604
:1029000000F01EF8022084F83D00211D206801F02F
:102910001DFD012084F8460084F83E0084F83F0045
:1029200084F8400084F8410084F8420084F84300B1
:1029300084F8440084F8450084F83D00002010BD70
:102940007047704710B50446022249B104290ED0E1
:10295000082913D094F84100012816D0012010BD99
:1029600094F83E000128F9D184F83E200FE094F855
:102970003F000128F2D184F83F2008E094F840009D
:102980000128EBD184F8402001E084F841200122A5
:10299000206801F043FD16492068164A884201D09C
:1029A000904203D1436C43F400434364206888425F
:1029B00013D0B0F1804F10D00F4988420DD00F498D
:1029C00088420AD00E49884207D0904205D00D496E
:1029D000884202D00C49884204D1816801F0070185
:1029E000062903D0016841F001010160002010BDFB
:1029F00000000140000401400004004000080040C5
:102A0000000C0040004001400018004000680349ED
:102A1000884201D1FFF706B9704700000018004056
:102A20007047704710B504460068406994F841103B
:102A3000C0F3C010212911D180B12068143050E8B2
:102A4000001F21F0800140E80012002AF5D1A06BA0
:102A500008B1FEF717FB204601F0C9FE2068406967
:102A600094F84210C0F38010222911D180B120685F
:102A7000143050E8001F21F0400140E80012002A05
:102A8000F5D1E06B08B1FEF7FDFA204601F088FEB3
:102A9000002010BD70470000F8B5016804460868C2
:102AA000CA684B6910F00F0F4FF0000559D003F0C2
:102AB000010602F49077374365D0C10705D0D105F0
:102AC00003D5616C41F001016164410705D5D90767
:102AD00003D0616C41F002016164810705D5D9071B
:102AE00003D0616C41F004016164010707D502F075
:102AF0002001314303D0616C41F008016164616CD5
:102B000000293AD0800604D5900602D5204601F06F
:102B10007CFE20684069616CC0F38010090700D416
:102B200060B3204601F03CFE20684069400621D594
:102B30002068143050E8001F21F0400140E80012E6
:102B4000002AF5D1E06BA8B172490165E06BFEF790
:102B5000E2FA002811D0E06B016D01B0BDE8F04051
:102B6000084783060FD593060DD52046BDE8F840EB
:102B700001F04BBE2046FFF78DFFF8BD2046FFF762
:102B800089FF6564F8BD266B2023012E7ED1C60621
:102B90007CD5D6067AD508684868009048694FF019
:102BA000020640064DD5E26B106840684FF480770E
:102BB0000004000C3AD0A18D814237D9E085D0695C
:102BC000B8422DD020680C3050E8001F21F48071ED
:102BD00040E80012002AF5D12068143050E8001FA8
:102BE00021F0010140E80012002AF5D120681430DC
:102BF00050E8001F21F0400140E80012002AF5D102
:102C000084F84230256320680C3050E8001F21F022
:102C1000100140E80012002AF5D1E06BFEF732FA0D
:102C20006663A08DE18D401A81B206E0A18D8142DC
:102C3000A8D1D069B842A5D166632046FFF7F1FE5E
:102C4000F8BDA08DE18D401A81B2E08D0028F7D04B
:102C50000029F5D020680C3050E8002F22F4907243
:102C600040E80027002FF5D12068143050E8002FED
:102C700022F0010240E80027002FF5D184F842300D
:102C8000256320680C3050E8002F00E006E022F0B9
:102C9000100240E80023002BF3D1CDE705062BD529
:102CA000150629D594F841002128C9D1A068B0F5AE
:102CB000805F01D12069B0B1206A411C2162216886
:102CC00000784860E08C401E0004000CE084B7D11E
:102CD0002068C16821F08001C1602068C16841F0AE
:102CE0004001C160F8BD206A0088C0F30800486058
:102CF000206A801C2062E5E74006F3D55006F1D536
:102D0000CA68204622F04002CA6084F8413000F0D0
:102D10006BF9F8BDA546000870B5040004D094F81E
:102D20004100002510B106E0012070BD84F840503C
:102D3000204600F023F8242084F841002068C16870
:102D400021F40051C160204601F0C0FD20680169F6
:102D500021F4904101612068416921F02A0141611B
:102D60002068C16841F40051C1606564202084F886
:102D7000410084F842006563002070BD2DE9F04FEA
:102D800087B0064614216846FDF7C4FA5D48DFF8AF
:102D90007081D6F800C000245A4910380325022259
:102DA0000827594BC4451BD10E6846F400260E6017
:102DB000096801F400210591016841F001010160F9
:102DC0000068CDE9005200F00100CDE904706946C9
:102DD0001846CDE90245FEF735FB07B0BDE8F08F98
:102DE000DFF828814FF000694FF4806A4FF4807B50
:102DF000C44548D10B6843F480130B60096801F4A3
:102E000080110591016841F004010160016801F041
:102E100004010591016841F008010160006802ABFE
:102E200000F0080005904FF48050CDE9000283E8DF
:102E3000B000904669463648FEF704FB0420CDE911
:102E4000000802AB694683E8B0003248FEF7FAFAA0
:102E5000324D31482860C5E90194C5E9034A6C61E7
:102E6000C5E9064B2C6228466C62FEF737FA08B1BA
:102E7000FDF7B5FFF563002205213520AE63FEF7AF
:102E800069FF352039E026498C45A6D11D49091D29
:102E90000F6847F010070F60096801F010010591F5
:102EA000016841F0010101600068694600F001001D
:102EB00005904FF4C0608DE8350007200490184657
:102EC000FEF7C0FA154D174860352860C5E9019432
:102ED000C5E9034A6C61C5E9064B2C6228466C6261
:102EE000FEF7FCF908B1FDF77AFFF5630022052132
:102EF0002520AE63FEF72EFF2520FEF71DFF6CE7B1
:102F0000004C0040403802400000024000500040A9
:102F100000080240000C024010600240240400201F
:102F2000001001404064024090F84230202B01D054
:102F30000220704721B11AB10023036301F04CBD98
:102F400001207047704770472DE9F843044690F818
:102F50004100984616460D46202802D00220BDE8C2
:102F6000F88385B17EB100206064212084F841009F
:102F7000FEF76AFBA6848146E684A0682027B0F5A8
:102F8000805F02D003E00120E9E7206910B12E46FE
:102F900000250EE000260CE08021204601F06CFDAB
:102FA000A8B9C6B116F8010B21684860E08C401E34
:102FB000E084E08C4B464FF00002CDF80080002802
:102FC000EAD14FF04001204601F056FD40B184F8AF
:102FD00041700320C3E735F8020BC0F30800E3E7B4
:102FE00084F841700020BAE77047FEE701684A693B
:102FF000D24352050FD46FF480624A61002140F839
:10300000301F202242738173026942F00402026180
:10301000017301207047002070470000F8B5044696
:10302000C06A1E460D461746082807D0012805D05D
:1030300010F5803F02D0206B122804D1206801686F
:1030400041F480710160134600224FF001112046C7
:10305000009600F0DBF840B120680068C00502D59A
:103060004FF4007020640320F8BD2069B0F5804F54
:103070000ED00620216800EAD51040F0F00008616B
:1030800033463A460B49204600F008F978B902E089
:1030900005F0FE0000E0E8B221680861054933460A
:1030A0003A46891F204600F0F9F80028DCD00120BC
:1030B000F8BD0000080001002DE9F84F0446006843
:1030C00089460B9D01689846174641F4806101606E
:1030D0002068016841F48071016000954FF0011B88
:1030E0000022594620460A9B00F090F84FF4007ADF
:1030F00040B120680068C00501D5C4F840A0032095
:10310000BDE8F88F216809F0FE0008612B462849C8
:1031100020460A9A00F0C2F8F0BB20684169806935
:1031200000902A4620460A9900F04EF940B1206CE2
:1031300004283AD12068016841F40071016034E04C
:10314000FEB2B8F1010F09D02168380A08612A4699
:1031500020460A9900F038F90028E8D12068066175
:103160002A4620460A9900F02FF90028DFD120686E
:10317000016841F4807101600095002259462046A3
:103180000A9B00F043F80028B3D1216809F0FF0042
:1031900040F00100086100E007E02B4604492046AA
:1031A0000A9A00F07BF80028AAD00120A8E70000C6
:1031B0000200010070B516460D4604461EE020468A
:1031C000FFF714FF08B1012070BD681C16D0FEF790
:1031D0003BFA801BA84200D885B920684069C043EB
:1031E00040070BD5002044F8300F20216173A073F5
:1031F000216941F0200121612073E4E720684069E2
:10320000C0434007DBD4002070BD00002DE9F0472B
:10321000984617460D460446C1F30746DDF8209050
:103220002AE000BFB8F1FF3F26D0FEF70DFAA0EB71
:103230000901414502D8B8F1000F1DD12068012EC7
:1032400016D0806925EA00000004000C12D000208E
:10325000B84211D1002044F8300F20216173A073CF
:10326000216941F02001216120730120BDE8F08730
:103270004069E7E70120EBE72068012E0AD080696A
:1032800025EA00000004000C06D00020B842C9D096
:103290000020EBE74069F3E70120F7E72DE9F0476D
:1032A000984616460D4604464FF000094FF0200A96
:1032B000C1F3074723E020684069C043400515D4A7
:1032C0002068016841F40071016021686FF480603A
:1032D0004861C4F8309084F83DA084F83E90216C99
:1032E00041F00401216484F83C9021E0701C06D078
:1032F000FEF7AAF9A0EB0800B04203D816B1012FDF
:103300001FD021E02068012F15D0806925EA000038
:103310000004000C18D000BF44F8309F84F80DA0C2
:1033200084F80E90216941F02001216184F80C900D
:103330000120BDE8F087406925EA00000004000C88
:10334000EAD12068406901E02068806925EA000030
:103350000004000CAFD1ECE72DE9F04100259046C8
:103360000E460446202728E04069C043C0060CD41E
:1033700054F8301B6FF01000486144F8105967771B
:10338000A577206A2062257714E0FEF75DF9A0EBAF
:103390000800B04200D886B920684069C0434006A2
:1033A0000BD544F8305F6773A573206940F02000A7
:1033B000206125730120BDE8F08120684169C9437F
:1033C0004906D1D40020F6E770B516460D460446EE
:1033D0001EE02046FFF70AFE08B1012070BD681C00
:1033E00016D0FEF731F9801BA84200D885B92068B5
:1033F0004069C04300060BD5002044F8300F20215F
:103400006173A073216941F0200121612073E4E719
:1034100020684069C0430006DBD4002070BD000076
:1034200010B52048FFF732F81F48FFF72FF80021AA
:103430001C48FFF787FA04211A48FFF783FA08218E
:103440001848FFF77FFA00211748FFF77BFA04219D
:103450001548FFF777FA08211348FFF773FA134866
:1034600000F06AFC3520FEF767FC1048027881689E
:103470000F48FFF759FD0E480068C16841F0100180
:10348000C1600C480068C16841F01001C160FDF7DF
:10349000A9FC00F0C6FC02F0EDFABDE810400020E7
:1034A00003F030BDBC020020040300208C05002086
:1034B00094030020DC03002070B586B0012505A828
:1034C000CDE90005FF242B4603220C2102941B4862
:1034D000FEF71AFA9DF814000123060203A8CDE9AD
:1034E000000504220C2102941448FEF70DFA9DF801
:1034F0000C00DFED130A3044800800EE100AB8EE2D
:10350000400A20EE200ADFED0F0A20EE200A10EE1E
:10351000100AFDF7E8F89FED0C1B53EC112BFCF79C
:10352000ABFF9FED0B1B53EC112BFDF717F8FDF7CD
:103530001DF906B000EE100A70BD00002002002048
:103540000000B4430000803800000060FB21094007
:10355000000000000080664070B586B0012505A817
:10356000CDE90005FF242B4603220C2102941B48C1
:10357000FEF7CAF99DF814000123060203A8CDE95D
:10358000000504220C2102941448FEF7BDF99DF8B1
:103590000C00DFED130A3044800800EE100AB8EE8C
:1035A000400A20EE200ADFED0F0A20EE200A10EE7E
:1035B000100AFDF798F89FED0C1B53EC112BFCF74C
:1035C0005BFF9FED0B1B53EC112BFCF7C7FFFDF7C7
:1035D000CDF806B000EE100A70BD0000CC0100204E
:1035E0000000B4430000803800000060FB21094067
:1035F0000000000000806640114808B5016841F4F1
:1036000000110160016801F400110091016841F4AA
:10361000800101600068002200F480000090052114
:103620000B20FEF797FB0B20FEF786FB00220521FF
:103630003A20FEF78FFBBDE808403A20FEF77CBB3E
:103640003038024010B5154A0021154802F098FBA9
:10365000144C124A002160602432134802F090FB9F
:103660000E4AA06048320021104802F089FB0B4A44
:10367000E0606C3200210E4802F082FB074A2061B4
:10368000903200210B4802F07BFB044A6061B432A7
:103690000021094802F074FBA06110BD0C7B0008FA
:1036A000794200080000002021340008A53A0008F3
:1036B0001D0F000811100008E50C0008F0B587B0D8
:1036C00014216846FCF726FE22480025016841F0D7
:1036D00080010160016801F080010591016841F0FD
:1036E00004010160016801F004010591016841F0E5
:1036F00001010160016801F001010591016841F0DB
:1037000002010160016801F002010591016841F0C8
:10371000080101600068104F00F008004FF44056A7
:103720000590012231463846FDF789FF0E20CDE98C
:1037300000050124694602940848FDF783FECDE99F
:10374000006469463846CDE90245FDF77BFE07B0C7
:10375000F0BD000030380240000402400008024082
:103760000D4810B50B4901600C49416000214FF430
:1037700080428160C0E9031241618161C1610162DF
:10378000FDF768FF002803D0BDE81040FDF727BB18
:1037900010BD00000054004078010020801A06008F
:1037A0000D4810B50B4901600C49416000214FF4F0
:1037B00080428160C0E9031241618161C16101629F
:1037C000FDF748FF002803D0BDE81040FDF707BB18
:1037D00010BD000000580040CC010020801A0600F7
:1037E0000D4810B50B4901600C49416000214FF4B0
:1037F00080428160C0E9031241618161C16101625F
:10380000FDF728FF002803D0BDE81040FDF7E7BA18
:1038100010BD0000005C004020020020801A06005D
:1038200010B586B0002417480094019402940394C4
:10383000049413490594C0E9001440F65F11C0E9EF
:103840000241046144618461FEF7C2FD08B1FDF7E5
:10385000C6FA4FF48050009069460A48FEF792FE7F
:1038600008B1FDF7BCFA049404A906480594FEF7D4
:1038700067FD002801D0FDF7B2FA06B010BD0000C8
:10388000000001407402002010B58EB0002407949F
:10389000089409940A940B941C2168460C94FCF734
:1038A00039FD26482449C0E9001440F6EF21C0E95B
:1038B000024104618461FEF78BFD08B1FDF78FFAC8
:1038C0004FF48050079007A91C48FEF75BFE08B133
:1038D000FDF785FA1948FFF706F808B1FDF77FFAFA
:1038E0000B940BA915480C94FEF72AFD08B1FDF7BF
:1038F00076FA6020CDE900040294002269460F4860
:103900000494FEF78AFF08B1FDF769FA04226946BC
:103910000A48FEF782FF08B1FDF761FA08226946FE
:103920000648FEF77AFF08B1FDF759FA0348FEF79B
:1039300031FF0EB010BD000000040040BC020020AA
:1039400010B58EB000240794089409940A940B943F
:103950001C2168460C94FCF7DDFC26482449C0E98C
:10396000001440F6EF21C0E9024104618461FEF7D2
:103970002FFD08B1FDF733FA4FF48050079007A9E7
:103980001C48FEF7FFFD08B1FDF729FA1948FEF7BC
:10399000AAFF08B1FDF723FA0B940BA915480C9464
:1039A000FEF7CEFC08B1FDF71AFA6020CDE900045D
:1039B0000294002269460F480494FEF72EFF08B1D6
:1039C000FDF70DFA042269460A48FEF726FF08B102
:1039D000FDF705FA082269460648FEF71EFF08B102
:1039E000FDF7FDF90348FEF7D5FE0EB010BD00004F
:1039F00000080040040300200C4810B50A4901608B
:103A00004FF4E1314160002181600C22C160C0E9C6
:103A100004128161C161FFF77FF9002803D0BDE87E
:103A20001040FDF7DCB910BD004C00404C030020F5
:103A30000C4810B50A4901604FF41651416000214D
:103A400081600C22C160C0E904128161C161FFF78D
:103A500063F9002803D0BDE81040FDF7C0B910BDE0
:103A600000500040940300200C4810B50A49016042
:103A70004FF4E1314160002181600C22C160C0E956
:103A800004128161C161FFF747F9002803D0BDE846
:103A90001040FDF7A4B910BD00100140DC03002068
:103AA000FEE700002DED068B82B00625DFF8E491DD
:103AB0009FED798ADFF8E481DFF8E4A19FED799B3F
:103AC0007A4FDFED7B8ADFF8ECB108F110049FED4F
:103AD0007AAA0021062379A2084600F014FB99ED8A
:103AE000010A20EE080A10EE100AFCF7FCFD41EC7A
:103AF000100B0223032200211820009500F016FA73
:103B0000704890ED010A20EE080A10EE100AFCF74A
:103B1000EAFD41EC100B022303220021482000950E
:103B200000F004FA062368A20C21002000F0EBFA52
:103B300098ED000A464620EE080A10EE100AFCF73F
:103B4000D2FD41EC100B022303220C21182000951A
:103B500000F0ECF994ED000A20EE080A10EE100ACD
:103B6000FCF7C1FD41EC100B022303220C2148207D
:103B7000009500F0DBF9062355A21821002000F083
:103B8000C2FADAF80400FCF7AEFD41EC100B182184
:103B9000022303220846009500F0C8F902230322FD
:103BA000B0EE490AF0EE690A18214820009500F0AD
:103BB000BDF9062344A22421002000F0A4FA706875
:103BC000FCF791FD41EC100B022303222421182065
:103BD000009500F0ABF96068FCF785FD41EC100B37
:103BE0000223032224214820009500F09FF9062398
:103BF00039A23021002000F086FA009503233021FD
:103C000018203A6800F05CFA00953021032308463A
:103C10007A6800F055FA3248009504230268302192
:103C2000602000F04DFA00F085FA08215E46584603
:103C3000FDF700FD00284FF00201304612D0FDF7DD
:103C4000F9FC28B994ED000A30EE280A84ED000A48
:103C500004213046FDF7EEFCC0B994ED000A30EEC9
:103C6000680A11E0FDF7E6FC28B994ED000A30EE91
:103C70000A0A84ED000A04213046FDF7DBFC28B96E
:103C800094ED000A30EE4A0A84ED000A322002F078
:103C90003BF81EE7AC090020333365425801002091
:103CA000040A002000000000000000003C0000208A
:103CB000EE96E43A0008024055DE8E3C416E673ACB
:103CC00000000000D80900205461723A0000000092
:103CD00056656C3A0000000041494D3A0000000072
:103CE000380000200EB507208DF80000104919207B
:103CF0008DF8010008880A23020A8DF802208DF849
:103D0000030088880922010A8DF804108DF8050047
:103D1000074808388088010A8DF806108DF80700DA
:103D200001208DF8080069460248FFF70DF90EBD25
:103D30003C0000204C03002070B504460E484FF4B0
:103D4000A07180250160F02141600620207065800F
:103D5000284601F08FFFA060207801F08BFFE06023
:103D6000082020746582284601F084FFA061207C31
:103D700001F080FFE06170BD3C000020FEE7000024
:103D800010B50021074C0A46002004EBC1131A5459
:103D9000401CC0B28028FAD3491CC9B20829F3D309
:103DA00010BD0000AC050020F0B57F282AD83F29BF
:103DB00028D88418802C02D9C0F18002D2B2CC1845
:103DC000402C02D9C1F14003DBB20126DFF838E014
:103DD00087180B4414E001F0070206FA02F5CA083E
:103DE00004460EEBC21207E012F804C02CEA050CE0
:103DF00002F804C0641CE4B2A742F5D8491CC9B259
:103E00008B42E8D8F0BD0000AC05002000204FF444
:103E10007A720021491C9142FCD3401C9042F8D395
:103E2000704710B5FFF7F2FFAE2000F097F9D520EC
:103E300000F094F9802000F091F9A82000F08EF9AC
:103E40003F2000F08BF9D32000F088F9002000F02B
:103E500085F9402000F082F9A12000F07FF9C82008
:103E600000F07CF9DA2000F079F9122000F076F900
:103E7000812000F073F9CF2000F070F9D92000F014
:103E80006DF9F12000F06AF9DB2000F067F93020CD
:103E900000F064F9A42000F061F9A62000F05EF9BA
:103EA0008D2000F05BF9142000F058F9AF2000F0ED
:103EB00055F9FFF765FFBDE8104000F03BB9024639
:103EC000012000E05043491EFCD2704710B50C465B
:103ED00040F0B00000F042F9102040EA141000F069
:103EE0003DF904F00F00BDE8104000F037B90000C4
:103EF00008B5082B0DD0062B0AD10A4B02EB420263
:103F000003EB4202C03A00920823062200F080F838
:103F100008BD054B03EB0212A2F5007210230092BC
:103F20000822F3E7D4810008E47B00082DE9F04F74
:103F30009A462DED028BB0EE408AF0EE608A81B099
:103F40009FED310B15468B46074653EC102B51EC79
:103F5000180B0C9CFCF7F2FB234605D82B22594684
:103F60003846FFF7C5FF0AE02D2259463846FFF7CD
:103F7000BFFF51EC180B81F0004141EC180B51ECE4
:103F8000180BFCF797FB8146FCF768FB53EC182BEA
:103F9000FCF76FFA41EC180B51460A20FFF78FFF30
:103FA0008046FCF75BFB53EC182BFCF765FA41EC01
:103FB000100B00F0EDFE51EC100BFCF77BFBB0FB9F
:103FC000F8F1064601EB09023819C0B22B465946F2
:103FD000009400F075F8681C00FB0470C0B2234622
:103FE0002E225946FFF784FFAD1C05FB0470C0B2BA
:103FF000534632465946009400F062F801B0BDECD9
:10400000028BBDE8F08F00000000000000000000FF
:104010002DE9FC4F1F4615460C4606467F284BD817
:104020003F2C49D8FFF7C0FE791ECA17002001EBCC
:1040300052710122DFF884B004F0070902EBE102BB
:1040400038E0002332E0F1187F2931D800EBD40AA0
:10405000BAF1070F30D80BEBCA1E1EF8017010FB27
:1040600005FCCDF804C0DDF82C809844CDF8008024
:104070001CF808C00CFA09FC47EA0C070EF801709E
:104080000AF10107072F0FD80EEB0108DDE900C187
:1040900098F8807011F80CC0C9F108012CFA01FCE5
:1040A00047EA0C0788F880705B1CDBB2AB42CAD3CE
:1040B000401CC0B28242C4DCBDE8FC8FAC050020CD
:1040C0002DE9F04700241D4690468A4681460A277E
:1040D000089E14E0291B0A20491EFFF7F0FEB8FBDA
:1040E000F0F0B0FBF7F107FB110204FB0690C0B241
:1040F000334651463032FFF7FBFE641CE4B2AC425B
:10410000E8D3BDE8F0872DE9F0411E461546884604
:104110000746002408E014FB0670C0B2334641464F
:10412000FFF7E6FE641CE4B22A5D002AF3D1BDE885
:10413000F081000070B5084D002400212046FFF7F3
:10414000C5FE05EBC410802100F018F8641CE4B231
:10415000082CF2D370BD0000AC0500201CB5002176
:1041600001918DF805000A200090022301AA782110
:104170000148FDF733FB1CBD78010020F8B5064669
:104180000C46481C01F076FD0546402028700020B2
:1041900004E0315C2A18401C5170C0B2A042F8D330
:1041A0000A200090631C2A4678210448FDF716FB7C
:1041B0002846BDE8F84001F0AFBC000078010020BF
:1041C00010B52DED028BB0EE408A01F0CDFC104C05
:1041D000DFED100A9FED101A84ED010A38EE400A57
:1041E00084ED008A60EE200A80EE810A84ED020AE6
:1041F000FCF7B4FC84ED0A0A01F008FBF0EE400A7B
:1042000094ED0A0ABDEC028BBDE8104002F04CBAF6
:10421000AC09002000003443DB0F494010B52DED00
:10422000028BB0EE408A01F0D1FC104CDFED100A99
:104230009FED101A84ED010A38EE400A84ED008AE1
:1042400060EE200A80EE810A84ED020AFCF7D8FCB9
:1042500084ED0A0A01F0ECFAF0EE400A94ED0A0A45
:10426000BDEC028BBDE8104002F088BBD8090020ED
:1042700000003443DB0F4940012001F045FDFBE71E
:1042800010B54FF0E020006903F08AFA012803D04E
:10429000BDE8104002F0B8BF10BD000030B593B0CB
:1042A00030216846FCF736F814210CA8FCF732F8E8
:1042B0001D480025016841F080510160006800F050
:1042C000805011901948016841F4804101600068F4
:1042D000022400F4804011900120039010200490EB
:1042E000009406940820CDE90750A820CDE90904E0
:1042F00004200B906846FDF76BFE08B172B6FEE72E
:104300000CA90F2081E831004FF4A0500F904FF41A
:104310008050109005210CA8FDF74EFD002801D01B
:1043200072B6FEE713B030BD403802400070004066
:104330000248016841F470010160704788ED00E0B7
:104340000148FEF78EB90000E4040020F0B50268D1
:10435000274B284D284E294F294C4FF0804C98422E
:1043600009D0604507D0A84205D0B04203D0B8427A
:1043700001D0A04204D122F0700E4A6842EA0E0237
:1043800098421BD0604519D0A84217D0B04215D032
:10439000B84213D0A04211D01A4DA8420ED01A4DE7
:1043A000A8420BD0194DA84208D0194DA84205D0FB
:1043B000184DA84202D0184DA84203D122F44075EE
:1043C000CA682A434D6922F080022A438D68C5627B
:1043D0000D688562984201D0A04201D1096901634C
:1043E000016841F004010160012141610260F0BDFA
:1043F000000001400004004000080040000C0040A4
:1044000000040140004001400044014000480140D8
:1044100000180040001C00400020004010B501F0D2
:104420001F030121046A99408C430462016A9A4087
:104430001143016210BD10B5846842EA032224F4DE
:104440007F440A432243826010BD826822F07002DA
:104450000A4342F00701816070470000F0B5036A2B
:10446000026A22F00102026242688469124E24F05C
:1044700073050C682C4323F002058B682B430D4D0C
:10448000A84201D0B04205D123F00807CB683B43D6
:1044900023F00403A84201D0B04205D14D6922F4B3
:1044A000407215438A692A434260846149684163C6
:1044B0000362F0BD0000014000040140F0B5026A53
:1044C000036A23F010030362436884690D6824F4CF
:1044D000E64444EA05248D6822F0200242EA0512EF
:1044E0000F4D104EA84201D0B04206D1CF6822F045
:1044F000800242EA071222F04002A84201D0B042F4
:1045000007D14D6923F4406343EA85038D6943EA8B
:10451000850343608461496881630262F0BD0000E5
:104520000000014000040140F0B5026A036A23F470
:10453000807303624368C46922F4007224F0730537
:104540000C68124E2C438D6842EA05220E4DA8429B
:1045500001D0B04206D1CF6822F4006242EA0722BD
:1045600022F48062A84201D0B04207D14D6923F401
:10457000405343EA05138D6943EA05134360C46160
:104580004968C1630262F0BD0000014000040140BF
:1045900030B5046A026A22F4805202624268C3693A
:1045A0000D6823F4E64343EA05238D6824F40054A0
:1045B00044EA0534084DA84202D0084DA84204D16F
:1045C0004D6922F4804242EA85124260C361496823
:1045D0000164046230BD000000000140000401409D
:1045E00010B5036A046A24F001040462846924F0AB
:1045F000F00444EA021423F00A020A4384610262CE
:1046000010BD10B5036A046A24F0100404628469C2
:1046100023F0A00324F4704444EA023243EA011177
:104620008261016210BD0000F8B51C4C2068016871
:10463000C90625D50168406800902046FEF7F2F9CA
:10464000E16B174D096868884968401A86B20024F2
:1046500009E0A868015D072903D1611C415C1929A3
:1046600013D0641CA4B22A78301B9042F1DA698816
:10467000A868FBF74FFE6A880848A968FEF754FC53
:10468000BDE8F8400548FEF707BA0119E868FBF7EE
:1046900028FE2878204484B2E5E700009403002037
:1046A0008C05002010B5806B0021C185FEF7F2F962
:1046B00010BD70B5846B2068406994F84110C0F358
:1046C000C0100025212904D118B1E584204600F04E
:1046D0008EF82068406994F84210C0F380102229B7
:1046E00004D118B1E585204600F05AF8606C40F01E
:1046F000100060642046FEF7CDF970BD10B501468C
:10470000806B096809684FF00002C9052ED4C28584
:1047100001680C3151E8003F23F4807341E8003414
:10472000002CF5D10168143151E8003F23F001035A
:1047300041E80034002CF5D10168143151E8003F04
:1047400023F0400341E80034002CF5D1202180F80B
:104750004210016B012909D101680C3151E8003F79
:1047600023F0100341E80034002CF5D14263016BC3
:10477000012902D0FEF7E6FB10BD818DFEF751F94D
:1047800010BD10B5806B01214163016B012902D07E
:10479000FEF7D9FB10BD818D4908FEF742F910BD27
:1047A00001680C3151E8002F22F4907241E8002397
:1047B000002BF5D10168143151E8002F22F00102DD
:1047C00041E80023002BF5D1016B012909D10168D3
:1047D0000C3151E8002F22F0100241E80023002B99
:1047E000F5D1202180F84210002101637047016853
:1047F0000C3151E8002F22F0C00241E80023002BC9
:10480000F5D1202180F84110704708B590F842108A
:10481000222901D0022008BD82684FF480539A42B9
:1048200001D1016921B1816A9A421BD04AB10AE0E3
:104830000268816A5268C2F308020A80816A891C90
:1048400008E0026972B10268526802F07F020A70E1
:10485000816A491C8162C18D491E0904090CC18508
:1048600003D01BE002685268F1E70168CA6822F0D1
:104870002002CA600168CA6822F48072CA600168B6
:104880004A6922F001024A61202180F84210002189
:104890004163026B012A03D0FEF754FB002008BDE0
:1048A000016301680C3151E8002F22F0100241E849
:1048B0000023002BF5D101680A68D20602D50A68E8
:1048C00049680091818DFEF7ACF8E7E770B50446C2
:1048D00000680169E26821F44051114301612169D6
:1048E000A068E26908436169114308432168CA6806
:1048F00049F20C639A430243CA6020684169A26985
:1049000021F440711143416131492068884202D04D
:104910003049884202D1FDF719FB01E0FDF706FBA3
:10492000E2690023192164253226B2F5004F62683E
:1049300028D0A0FB0101930F9200FBF7A1FC0146D8
:10494000B0FBF5F06FF01802504301EB800006EB6E
:104950000010B0FBF5F000F0F002B1FBF5F002EB57
:104960000012B1FBF5F06FF01803584301EB800023
:1049700006EB0010B0FBF5F000F00F0021681044CA
:10498000886070BDA0FB010192185B41FBF778FCC9
:104990000146B0FBF5F00201B1FBF5F06FF0180332
:1049A000584301EB800006EBC000B0FBF5F000F0CF
:1049B000F80002EB4002B1FBF5F0584301EB800038
:1049C00006EBC000B0FBF5F000F00700D6E70000F2
:1049D000001001400014014038B581620446828510
:1049E000002013466064222284F84220E56B1F4AAF
:1049F000EA63E56B1E4A2A64E56B1E4AEA64E26BD1
:104A000010650A462168E06B091DFCF7D1FC30B146
:104A100010206064202084F84200012038BD206806
:104A2000016840680090206948B120680C3050E867
:104A3000001F41F4807140E80012002AF5D120687F
:104A4000143050E8001F41F0010140E80012002A34
:104A5000F5D12068143050E8001F41F0400140E8D3
:104A60000012002AF5D1002038BD0000FD460008E4
:104A700083470008B34600082DE9F84398461746D7
:104A80000D460446089E24E0701C22D0FCF7DCFD95
:104A9000A0EB0800B0421AD8CEB12068C16849071F
:104AA00017D5802D15D0402D13D00168C9430907B3
:104AB0000FD401680025406800902046FFF770FE83
:104AC0000820606484F840500120BDE8F88303208A
:104AD000FBE72068006835EA000004D00020B842F7
:104AE000D2D00020F1E70120F9E70000F8B51C4C16
:104AF00020680168C90625D50168406800902046F5
:104B0000FDF790FFE16B174D0968688A4968401A04
:104B100086B2002409E0A869015DB42903D1611CB3
:104B2000415C692913D0641CA4B22A7C301B9042DA
:104B3000F1DA698AA869FBF7EDFB6A8A0848A96976
:104B4000FEF7F2F9BDE8F8400548FDF7A5BF0119E9
:104B5000E869FBF7C6FB287C204484B2E5E7000047
:104B6000DC0300208C050020FEE703B4019841001F
:104B7000009850EAC12018BF04204A0D18BF40F029
:104B8000010040F2FF72B2EB515F08BF40F002003B
:104B9000012808BF052002B070470907090E002848
:104BA00004DB00F1E02080F80014704700F00F00F3
:104BB00000F1E02080F8141D7047000000000000A4
:104BC00010B52F499FED2C1B2DED020B84B00598DD
:104BD00020F000408842D8BF9DED040B2DDD29490F
:104BE000884209D1049840B94FF0010000F008FE56
:104BF00000F0D6FD06B010BD05DB9DED040B00F006
:104C0000C3FD06B010BD68469DED040B00F0D4F95D
:104C100010F0030004BF9DED021B9DED000B0CD0B6
:104C200001280ED09DED021B9DED000B022817D030
:104C3000012000F011FD06B010BD00F0D9FB06B058
:104C400010BD9DED021B9DED000B012000F004FD49
:104C500051EC100B81F0004106B041EC100B10BD7F
:104C600000F0C6FB51EC100B81F0004106B041ECA6
:104C7000100B10BD0000000000000000000000004C
:104C8000FB21E93F0000F07F10B52DED040B86B04D
:104C90009DED060B10EE100A10EE901A8DED000B34
:104CA000002818BF0120084320F00040C0F17F60B9
:104CB00000F1E040C00F21D19DED080B10EE101A5D
:104CC00010EE900A8DED000B002918BF012108435A
:104CD00020F00040C0F17F6000F1E040C00F0DD136
:104CE00029490798B1EB400F04BF0698002842D02D
:104CF0000998400004BF089800283CD09DED080B9F
:104D000053EC102B9DED060B51EC100BFBF7A4FEA2
:104D1000CDE902019DED020B40F2FF7110EE900A09
:104D20008DED000B31EA105021D00798039900F067
:104D3000004001F00041884219D09DED080B8DED37
:104D4000040B9DED020B8DED000B10EE900A059902
:104D500061F31E0005909DED041B9DED020B51ECCF
:104D6000110B53EC102BFBF784FBCDE902019DEDF9
:104D7000020B0AB010BD012000F042FD0AB0BDE8F0
:104D8000104000F00DBD00000000E0FF000000003A
:104D900010B52DED020B2DED088B84B09DED0C0BA5
:104DA00051EC100BFBF714FE41EC180B9DED0C0BB6
:104DB00053EC182B51EC100BFBF758FB41EC190B83
:104DC0000D989FED290B10F0004F53EC102B51EC78
:104DD000190B9FED21AB9FED22BB0ED0FBF796FC8C
:104DE0000ED953EC1B2B51EC190BFBF7A7FC1CD273
:104DF00014E000BF41EC180B17E0FBF787FC06D26C
:104E000053EC1A2B51EC180BFBF730FBF2E753EC89
:104E10001B2B51EC190BFBF791FC06D853EC1A2B0A
:104E200051EC180BFBF781FAE4E78DED028B9DED59
:104E30000C0B18EE901A10EE900A8DED000B61F33A
:104E40001E0003909DED020B04B0BDEC088B02B078
:104E500010BD000000000000000000000000F03F56
:104E6000000000000000E03F000000000000E0BF84
:104E700010B52F499FED2C1B2DED020B84B005982A
:104E800020F000408842DCBF00209DED040B32DDA5
:104E90002849884209D1049840B94FF0010000F038
:104EA000AFFC00F07DFC06B010BD05DB9DED040BF2
:104EB00000F06AFC06B010BD68469DED040B00F0E2
:104EC0007BF810F0030011D0012818D09DED021BD3
:104ED0009DED000B02281AD000F08AFA51EC100B5D
:104EE00081F0004106B041EC100B10BD9DED021B9E
:104EF0009DED000B012000F0AFFB06B010BD9DED55
:104F0000021B9DED000B00F073FA06B010BD0120EE
:104F100000F0A2FB51EC100B81F0004106B041EC17
:104F2000100B10BD00000000000000000000000099
:104F3000FB21E93F0000F07F00B52DED048BB0EEC2
:104F4000409AF0EE609A83B051EC190BFBF7EFFC3E
:104F500041EC180B18EE100A18EE901A8DED008B2C
:104F6000002818BF0120084320F00040C0F17F60F6
:104F700000F1E040C00F14D019EE101A19EE900A9B
:104F80008DED009B002918BF0121084320F000404F
:104F9000C0F17F6000F1E040C00F04BF012000F0CD
:104FA0002FFCB0EE480A03B0F0EE680ABDEC048BAB
:104FB00000BD0000000000002DE9F14F04462DED7A
:104FC000020B2DED088B8AB09FEDE70B80ED020BF5
:104FD000139EE74826F0004585420ADC9DED120B42
:104FE000002084ED000B0AB0BDEC088B03B0BDE8D7
:104FF000F08FE0489FEDE0AB9FEDE1BBA84247DDBD
:10500000E14F9FEDE39B9FEDE48B9DED120B53EC85
:105010001A2B51EC100B002E1CDDFBF727FA41EC8C
:10502000100BBD4208D053EC1B2B51EC100BFBF7BF
:105030001DFAC4E900010BE053EC192B51EC100BE5
:10504000FBF714FA53EC182BFBF710FAC4E9000134
:105050000120C8E7FBF769F941EC100BBD4208D00D
:1050600053EC1B2B51EC100BFBF75FF9C4E900016B
:105070000BE053EC192B51EC100BFBF756F953ECEA
:10508000182BFBF752F9C4E900014FF0FF30AAE7F3
:10509000C348A84279DB9DED120B51EC100B00F0D8
:1050A0002FFD41EC180B9FEDC00B53EC102BFBF7C1
:1050B000E3F99FEDBF1B53EC112BFBF736F9FBF720
:1050C000DAFA0746FBF7B9FA41EC190B53EC1A2B45
:1050D000FBF7D2F953EC182BFBF7CBF941EC180B8B
:1050E00053EC1B2B51EC190BFBF7C6F9DFF8C8A2E8
:1050F00041EC100B4FEA15580125FA4453EC102BE4
:1051000051EC180BFBF7B2F9032DC4E900013DD0B7
:10511000C1F30A5005EB4511A8EB0000113981429B
:1051200034DA0AEB051BB0EE48AA9BED000BF0EE5B
:1051300068AA53EC102B51EC190BFBF79DF941ECCD
:105140001B0B51EC1A0B53EC1B2BFBF78FF941ECAB
:10515000180B51EC1A0B53EC182BFBF787F953EC97
:105160001B2BFBF783F99BED020B41EC1A0B53EC65
:10517000102B51EC190BFBF77FF953EC1A2BFBF7B3
:1051800075F941EC100B6D1CB8E70EE0002EA8BFBE
:105190003846BFF628AF94ED000B51EC100B81F0B0
:1051A0000041C4E9000178421DE7C6F3130040F452
:1051B000801EC6F30A50A0F2F530471100F01F051B
:1051C000C5F12000DDF848B0089000200690079057
:1051D0000520EC467949002D07EB0002794408BF11
:1051E00051F8221009D051F8223001EB8201AB4076
:1051F0004A68089922FA01F11943A1FB0E26A1FB86
:105200000B131A449A4234BF0123002303EB060810
:105210000CEB8003D3E901A60E448E4234BF01217A
:10522000002192448A4411B1924502D903E092458B
:1052300001D2012100E00021C3E901A641444CF85C
:105240002010011EA0F10100C4DC029800F1005002
:10525000850F0298DDE903678000DDF81480FBF715
:10526000ECF941EC1A0B3046FBF7F8F99FED541BB3
:1052700053EC112BFBF700F941EC1B0B3846FBF705
:10528000EDF99FED511B53EC112BFBF7F5F841ECB9
:10529000180B4046FBF7E2F99FED4D1B53EC112B29
:1052A000FBF7EAF841EC190B51EC180B53EC192BF6
:1052B000FBF73BF853EC1B2BFBF737F853EC1A2B9F
:1052C000FBF733F8CDE90801002008909DED080BAD
:1052D00053EC1A2B51EC100BFBF7C8F853EC1B2BBB
:1052E000FBF7C4F853EC182BFBF7C0F853EC192B61
:1052F000FBF7BFF89FED381B53EC112BFBF7BCF805
:105300009FED370B41EC180B53EC102B9DED080B68
:1053100051EC100BFBF7B0F853EC182BFBF705F82A
:105320009FED310B41EC180B53EC102B9DED080B4E
:1053300051EC100BFBF7A0F853EC182BFAF7F5FF24
:1053400041EC100B139810F0004F06D06D4251EC59
:10535000100B81F0004141EC100B284684ED000B4E
:1053600041E6000000000000000000000000000016
:10537000FB21E93F7CD9024000004054FB21F93F6A
:105380003163621A61B4D03DFB21F93F0000000097
:105390000000601A61B4D03D7370032E8A19A33BDC
:1053A000FB2139410000000083C8C96D305FE43F34
:1053B000000000000000E03F62330000B032000057
:1053C000000000000000103E000000000000103C43
:1053D000000000000000103A182D4454FB21F93D54
:1053E0003326A611460B113C00000054FB21F93D69
:1053F00010B52DED040B2DED088B82B0B0EE419A67
:10540000F0EE619A0B9820F000449FED4BABB4F1A5
:10541000795F11DA9DED0A0B51EC100BFBF72BF9BC
:10542000002801BFB0EE4A0AF0EE6A0A02B0BDECF5
:10543000088B04BF04B010BD9DED0A0B53EC102B7C
:1054400051EC100BFBF718F841EC180B3C48062107
:10545000B0EE480AF0EE680A784400F081F853ECA8
:10546000182B51EC100BFBF707F89DED0A0B41ECE4
:105470001B0B53EC192B51EC100BFAF7FDFF41EC11
:10548000190B53EC1B2B51EC180BFAF7F5FF53ECEF
:10549000192BFAF7EBFF9FED2C0B41EC190B53EC9A
:1054A000102B51EC180BFAF7E7FF41EC100B2848D2
:1054B000844210DA53EC192B51EC100BFAF7D6FF9B
:1054C00053EC1A2BFAF7D5FF41EC100B02B0BDECF0
:1054D000088B04B010BD1F48A042BCBF9FED1E1B2F
:1054E0008DED001B06DBA4F500100190002000905C
:1054F0009DED001B51EC100B53EC112BFAF7B6FF8E
:105500009DED000B41EC180B53EC102B51EC1A0BDA
:10551000FAF7ACFF41EC1A0B53EC192B51EC180BBA
:10552000FAF7A4FF53EC1A2BFAF7A3FF41EC100B88
:10553000CCE7000000000000000000000000F03F89
:10554000D42F000000000000000000000000E03F39
:105550003333D33F0000E93F000000000000D23F9A
:1055600070B504462DED028B4D1E00EBC500B0EE6C
:10557000408AF0EE608A90ED000B35F0060017D0FF
:1055800053EC182B51EC100BFAF776FF41EC100B93
:105590006D1E04EBC50090ED001B51EC100B53EC9D
:1055A000112BFAF7C2FE41EC100B35F00600E7D1E3
:1055B000022D36D0042D1CD0062D1CBFBDEC028B55
:1055C00070BD53EC182B51EC100BFAF755FF94ED0E
:1055D0000A1B53EC112BFAF7A8FE53EC182BFAF721
:1055E0004BFF94ED081B53EC112BFAF79EFE41EC98
:1055F000100B53EC182B51EC100BFAF73DFF94ED08
:10560000061B53EC112BFAF790FE53EC182BFAF70C
:1056100033FF94ED040B53EC102BFAF786FE41ECAC
:10562000100B53EC182B51EC100BFAF725FF94EDEF
:10563000021B53EC112BFAF778FE53EC182BFAF7F8
:105640001BFF94ED001B53EC112BFAF76EFEBDEC23
:10565000028B41EC100B70BD31B504462DED040BEF
:105660002DED0A8BB0EE41BAF0EE61BA0B989DEDCC
:105670000A0B20F00040B0F1795F0DDA51EC100B0D
:10568000FFF773FA042808BF00F09AF89DED0A0BA3
:10569000BDEC0A8B05B030BD53EC102B51EC100B58
:1056A000FAF7EAFE41EC180B9DED0A0B53EC182BB0
:1056B00051EC100BFAF7E0FE41EC190B2C48B0EE60
:1056C000480AF0EE680A05217844FFF749FF9FED8C
:1056D0002ACBB0EE40AAF0EE60AA9CB353EC1C2B90
:1056E00051EC190BFAF7C8FE41EC1C0B53EC1A2BCA
:1056F00051EC190BFAF7C0FE9FED210B41EC190B91
:1057000053EC102B51EC1B0BFAF7B6FE53EC192B94
:10571000FAF7ACFE53EC182BFAF7AEFE53EC1B2B4A
:10572000FAF7A4FE53EC1C2BFAF7A0FE9DED0A1B22
:1057300053EC112BFAF79DFEBDEC0A8B05B041EC42
:10574000100B30BDFFE753EC1A2B51EC180BFAF796
:1057500093FE53EC1C2BFAF7E8FD53EC192BFAF7E8
:105760008BFE9DED0A1B53EC112BFAF7DEFDE3E7F0
:105770005C2E000000000000495555555555C5BF29
:10578000000000000000E03F10B553EC102B51EC7E
:10579000100BFAF7CAFD41EC100B10BD0000000021
:1057A0009FED050B10B553EC102B51EC100BFAF7D5
:1057B000D5FE41EC100B10BD000000000000000001
:1057C0009FED050B10B553EC102B51EC100BFAF7B5
:1057D00053FE41EC100B10BD000000000000001053
:1057E00002E008C8121F08C1002AFAD170477047AA
:1057F000002001E001C1121F002AFBD17047000008
:1058000001490860704700005401002010B5FDF701
:1058100053FE0648B1EE0C1AD0ED040ABDE8104064
:1058200050EE010AB0EE600A00F014B894000020B7
:1058300010B5FDF791FE0648B2EE061AD0ED050A46
:10584000BDE8104050EE010AB0EE600A00F002B868
:105850009400002010B510EE100AFAF744FF41EC56
:10586000100B9FED0A1BFFF70FFA51EC100BFAF724
:105870007DFF00EE100AB5EEC00AF1EE10FA03DA71
:10588000DFED040A30EE200A10BD000000000060C9
:10589000FB211940DB0FC9403A499FED390A3A48CC
:1058A00081ED010AD0ED000A3848F8EEE00A30EE4A
:1058B000600A81ED050AB5EEC00AF1EE10FA0AD1D0
:1058C0000188491C89B20180C82903D301214160A4
:1058D000C82101807047002202804260D1ED080A91
:1058E000B4EEE00AF1EE10FA01DDC1ED050A91ED2A
:1058F000051AB1EE600AB4EEC01AF1EE10FA01D248
:1059000081ED050AD1ED050A90ED020A30EE801A0C
:1059100080ED021A91ED090AB4EEC10AF1EE10FA17
:1059200001D280ED020A90ED021AB1EE400AB4EE07
:10593000C10AF1EE10FA01DD80ED020A91ED060ACE
:10594000DFED131A30EEC01A90ED030A31EE401A63
:1059500001EE210A80ED030A91ED021AD1ED041A3D
:1059600090ED022A21EE201A01EE821AD1ED031ADF
:1059700001EE801A81ED0A1AC1ED060A7047000097
:105980000000A0432C0500203C0000201C0000204B
:10599000CDCCCC3D33489FED320A334980ED010A2E
:1059A000D1ED010AF8EEE00A30EE600A80ED050A5A
:1059B000B5EEC00AF1EE10FA50D0D0ED080AB4EE00
:1059C000E00AF1EE10FA01DDC0ED050A90ED051ACE
:1059D000B1EE600AB4EEC01AF1EE10FA01D280ED19
:1059E000050A2249D0ED050A91ED040A30EE801A2D
:1059F00081ED041A90ED090AB4EEC10AF1EE10FA35
:105A000001D281ED040A91ED041AB1EE400AB4EE20
:105A1000C10AF1EE10FA01DD81ED040A90ED060AEB
:105A2000DFED131A30EEC01A91ED050A31EE401A7F
:105A300001EE210A81ED050A90ED021AD0ED041A5B
:105A400091ED042A21EE201A01EE821AD0ED031AFC
:105A500001EE801A80ED0A1AC0ED060A70470000B8
:105A6000000070435C0500203C0000201C0000206A
:105A70009A99193E18489FED170A012180ED020AF4
:105A80009FED160ADFED190A80ED040A9FED140A56
:105A900080ED030A9FED130A80ED080A9FED120ABC
:105AA00080ED090AC1623030C0ED020ADFED100A54
:105AB000C0ED040ADFED0F0AC0ED030ADFED0E0AA8
:105AC000C0ED010ADFED0D0AC0ED080A80ED090AFC
:105AD000C1627047C3642A3A2C05002020F0C03709
